{
  "_format": "hh-sol-artifact-1",
  "contractName": "TokenMaster",
  "sourceName": "contracts/TokenMaster.sol",
  "abi": [
    {
      "inputs": [
        {
          "internalType": "string",
          "name": "_name",
          "type": "string"
        },
        {
          "internalType": "string",
          "name": "_symbol",
          "type": "string"
        }
      ],
      "stateMutability": "nonpayable",
      "type": "constructor"
    },
    {
      "inputs": [
        {
          "internalType": "address",
          "name": "sender",
          "type": "address"
        },
        {
          "internalType": "uint256",
          "name": "tokenId",
          "type": "uint256"
        },
        {
          "internalType": "address",
          "name": "owner",
          "type": "address"
        }
      ],
      "name": "ERC721IncorrectOwner",
      "type": "error"
    },
    {
      "inputs": [
        {
          "internalType": "address",
          "name": "operator",
          "type": "address"
        },
        {
          "internalType": "uint256",
          "name": "tokenId",
          "type": "uint256"
        }
      ],
      "name": "ERC721InsufficientApproval",
      "type": "error"
    },
    {
      "inputs": [
        {
          "internalType": "address",
          "name": "approver",
          "type": "address"
        }
      ],
      "name": "ERC721InvalidApprover",
      "type": "error"
    },
    {
      "inputs": [
        {
          "internalType": "address",
          "name": "operator",
          "type": "address"
        }
      ],
      "name": "ERC721InvalidOperator",
      "type": "error"
    },
    {
      "inputs": [
        {
          "internalType": "address",
          "name": "owner",
          "type": "address"
        }
      ],
      "name": "ERC721InvalidOwner",
      "type": "error"
    },
    {
      "inputs": [
        {
          "internalType": "address",
          "name": "receiver",
          "type": "address"
        }
      ],
      "name": "ERC721InvalidReceiver",
      "type": "error"
    },
    {
      "inputs": [
        {
          "internalType": "address",
          "name": "sender",
          "type": "address"
        }
      ],
      "name": "ERC721InvalidSender",
      "type": "error"
    },
    {
      "inputs": [
        {
          "internalType": "uint256",
          "name": "tokenId",
          "type": "uint256"
        }
      ],
      "name": "ERC721NonexistentToken",
      "type": "error"
    },
    {
      "inputs": [],
      "name": "EventDoesNotExist",
      "type": "error"
    },
    {
      "inputs": [],
      "name": "InvalidSeatNumber",
      "type": "error"
    },
    {
      "inputs": [],
      "name": "MustBeTheOwner",
      "type": "error"
    },
    {
      "inputs": [
        {
          "internalType": "address",
          "name": "owner",
          "type": "address"
        }
      ],
      "name": "OwnableInvalidOwner",
      "type": "error"
    },
    {
      "inputs": [
        {
          "internalType": "address",
          "name": "account",
          "type": "address"
        }
      ],
      "name": "OwnableUnauthorizedAccount",
      "type": "error"
    },
    {
      "inputs": [],
      "name": "SeatAlreadyTaken",
      "type": "error"
    },
    {
      "anonymous": false,
      "inputs": [
        {
          "indexed": true,
          "internalType": "address",
          "name": "owner",
          "type": "address"
        },
        {
          "indexed": true,
          "internalType": "address",
          "name": "approved",
          "type": "address"
        },
        {
          "indexed": true,
          "internalType": "uint256",
          "name": "tokenId",
          "type": "uint256"
        }
      ],
      "name": "Approval",
      "type": "event"
    },
    {
      "anonymous": false,
      "inputs": [
        {
          "indexed": true,
          "internalType": "address",
          "name": "owner",
          "type": "address"
        },
        {
          "indexed": true,
          "internalType": "address",
          "name": "operator",
          "type": "address"
        },
        {
          "indexed": false,
          "internalType": "bool",
          "name": "approved",
          "type": "bool"
        }
      ],
      "name": "ApprovalForAll",
      "type": "event"
    },
    {
      "anonymous": false,
      "inputs": [
        {
          "indexed": true,
          "internalType": "address",
          "name": "previousOwner",
          "type": "address"
        },
        {
          "indexed": true,
          "internalType": "address",
          "name": "newOwner",
          "type": "address"
        }
      ],
      "name": "OwnershipTransferred",
      "type": "event"
    },
    {
      "anonymous": false,
      "inputs": [
        {
          "indexed": true,
          "internalType": "address",
          "name": "from",
          "type": "address"
        },
        {
          "indexed": true,
          "internalType": "address",
          "name": "to",
          "type": "address"
        },
        {
          "indexed": true,
          "internalType": "uint256",
          "name": "tokenId",
          "type": "uint256"
        }
      ],
      "name": "Transfer",
      "type": "event"
    },
    {
      "inputs": [
        {
          "internalType": "address",
          "name": "to",
          "type": "address"
        },
        {
          "internalType": "uint256",
          "name": "tokenId",
          "type": "uint256"
        }
      ],
      "name": "approve",
      "outputs": [],
      "stateMutability": "nonpayable",
      "type": "function"
    },
    {
      "inputs": [
        {
          "internalType": "address",
          "name": "owner",
          "type": "address"
        }
      ],
      "name": "balanceOf",
      "outputs": [
        {
          "internalType": "uint256",
          "name": "",
          "type": "uint256"
        }
      ],
      "stateMutability": "view",
      "type": "function"
    },
    {
      "inputs": [
        {
          "internalType": "uint256",
          "name": "tokenId",
          "type": "uint256"
        }
      ],
      "name": "getApproved",
      "outputs": [
        {
          "internalType": "address",
          "name": "",
          "type": "address"
        }
      ],
      "stateMutability": "view",
      "type": "function"
    },
    {
      "inputs": [
        {
          "internalType": "uint256",
          "name": "_id",
          "type": "uint256"
        }
      ],
      "name": "getEventFromId",
      "outputs": [
        {
          "components": [
            {
              "internalType": "uint256",
              "name": "id",
              "type": "uint256"
            },
            {
              "internalType": "string",
              "name": "name",
              "type": "string"
            },
            {
              "internalType": "uint256",
              "name": "cost",
              "type": "uint256"
            },
            {
              "internalType": "uint256",
              "name": "maxTickets",
              "type": "uint256"
            },
            {
              "internalType": "uint256",
              "name": "tickets",
              "type": "uint256"
            },
            {
              "internalType": "string",
              "name": "date",
              "type": "string"
            },
            {
              "internalType": "string",
              "name": "time",
              "type": "string"
            },
            {
              "internalType": "string",
              "name": "location",
              "type": "string"
            }
          ],
          "internalType": "struct TokenMaster.Event",
          "name": "_event",
          "type": "tuple"
        }
      ],
      "stateMutability": "view",
      "type": "function"
    },
    {
      "inputs": [
        {
          "internalType": "uint256",
          "name": "_eventId",
          "type": "uint256"
        }
      ],
      "name": "getSeatsTakenFromId",
      "outputs": [
        {
          "internalType": "uint256[]",
          "name": "takenSeats",
          "type": "uint256[]"
        }
      ],
      "stateMutability": "view",
      "type": "function"
    },
    {
      "inputs": [
        {
          "internalType": "address",
          "name": "owner",
          "type": "address"
        },
        {
          "internalType": "address",
          "name": "operator",
          "type": "address"
        }
      ],
      "name": "isApprovedForAll",
      "outputs": [
        {
          "internalType": "bool",
          "name": "",
          "type": "bool"
        }
      ],
      "stateMutability": "view",
      "type": "function"
    },
    {
      "inputs": [
        {
          "internalType": "uint256",
          "name": "",
          "type": "uint256"
        }
      ],
      "name": "m_events",
      "outputs": [
        {
          "internalType": "uint256",
          "name": "id",
          "type": "uint256"
        },
        {
          "internalType": "string",
          "name": "name",
          "type": "string"
        },
        {
          "internalType": "uint256",
          "name": "cost",
          "type": "uint256"
        },
        {
          "internalType": "uint256",
          "name": "maxTickets",
          "type": "uint256"
        },
        {
          "internalType": "uint256",
          "name": "tickets",
          "type": "uint256"
        },
        {
          "internalType": "string",
          "name": "date",
          "type": "string"
        },
        {
          "internalType": "string",
          "name": "time",
          "type": "string"
        },
        {
          "internalType": "string",
          "name": "location",
          "type": "string"
        }
      ],
      "stateMutability": "view",
      "type": "function"
    },
    {
      "inputs": [
        {
          "internalType": "uint256",
          "name": "",
          "type": "uint256"
        },
        {
          "internalType": "address",
          "name": "",
          "type": "address"
        }
      ],
      "name": "m_hasPurchasedEventTicket",
      "outputs": [
        {
          "internalType": "bool",
          "name": "",
          "type": "bool"
        }
      ],
      "stateMutability": "view",
      "type": "function"
    },
    {
      "inputs": [
        {
          "internalType": "uint256",
          "name": "",
          "type": "uint256"
        },
        {
          "internalType": "uint256",
          "name": "",
          "type": "uint256"
        }
      ],
      "name": "m_seats",
      "outputs": [
        {
          "internalType": "address",
          "name": "",
          "type": "address"
        }
      ],
      "stateMutability": "view",
      "type": "function"
    },
    {
      "inputs": [
        {
          "internalType": "uint256",
          "name": "",
          "type": "uint256"
        },
        {
          "internalType": "uint256",
          "name": "",
          "type": "uint256"
        }
      ],
      "name": "m_takenSeats",
      "outputs": [
        {
          "internalType": "uint256",
          "name": "",
          "type": "uint256"
        }
      ],
      "stateMutability": "view",
      "type": "function"
    },
    {
      "inputs": [
        {
          "internalType": "uint256",
          "name": "_eventId",
          "type": "uint256"
        },
        {
          "internalType": "uint256",
          "name": "_seat",
          "type": "uint256"
        }
      ],
      "name": "mint",
      "outputs": [],
      "stateMutability": "payable",
      "type": "function"
    },
    {
      "inputs": [],
      "name": "name",
      "outputs": [
        {
          "internalType": "string",
          "name": "",
          "type": "string"
        }
      ],
      "stateMutability": "view",
      "type": "function"
    },
    {
      "inputs": [],
      "name": "owner",
      "outputs": [
        {
          "internalType": "address",
          "name": "",
          "type": "address"
        }
      ],
      "stateMutability": "view",
      "type": "function"
    },
    {
      "inputs": [
        {
          "internalType": "uint256",
          "name": "tokenId",
          "type": "uint256"
        }
      ],
      "name": "ownerOf",
      "outputs": [
        {
          "internalType": "address",
          "name": "",
          "type": "address"
        }
      ],
      "stateMutability": "view",
      "type": "function"
    },
    {
      "inputs": [],
      "name": "renounceOwnership",
      "outputs": [],
      "stateMutability": "nonpayable",
      "type": "function"
    },
    {
      "inputs": [],
      "name": "s_totalEvents",
      "outputs": [
        {
          "internalType": "uint256",
          "name": "",
          "type": "uint256"
        }
      ],
      "stateMutability": "view",
      "type": "function"
    },
    {
      "inputs": [],
      "name": "s_totalSupply",
      "outputs": [
        {
          "internalType": "uint256",
          "name": "",
          "type": "uint256"
        }
      ],
      "stateMutability": "view",
      "type": "function"
    },
    {
      "inputs": [
        {
          "internalType": "address",
          "name": "from",
          "type": "address"
        },
        {
          "internalType": "address",
          "name": "to",
          "type": "address"
        },
        {
          "internalType": "uint256",
          "name": "tokenId",
          "type": "uint256"
        }
      ],
      "name": "safeTransferFrom",
      "outputs": [],
      "stateMutability": "nonpayable",
      "type": "function"
    },
    {
      "inputs": [
        {
          "internalType": "address",
          "name": "from",
          "type": "address"
        },
        {
          "internalType": "address",
          "name": "to",
          "type": "address"
        },
        {
          "internalType": "uint256",
          "name": "tokenId",
          "type": "uint256"
        },
        {
          "internalType": "bytes",
          "name": "data",
          "type": "bytes"
        }
      ],
      "name": "safeTransferFrom",
      "outputs": [],
      "stateMutability": "nonpayable",
      "type": "function"
    },
    {
      "inputs": [
        {
          "internalType": "address",
          "name": "operator",
          "type": "address"
        },
        {
          "internalType": "bool",
          "name": "approved",
          "type": "bool"
        }
      ],
      "name": "setApprovalForAll",
      "outputs": [],
      "stateMutability": "nonpayable",
      "type": "function"
    },
    {
      "inputs": [
        {
          "internalType": "string",
          "name": "_name",
          "type": "string"
        },
        {
          "internalType": "uint256",
          "name": "_cost",
          "type": "uint256"
        },
        {
          "internalType": "uint256",
          "name": "_maxTickets",
          "type": "uint256"
        },
        {
          "internalType": "string",
          "name": "_date",
          "type": "string"
        },
        {
          "internalType": "string",
          "name": "_time",
          "type": "string"
        },
        {
          "internalType": "string",
          "name": "_location",
          "type": "string"
        }
      ],
      "name": "setEvent",
      "outputs": [],
      "stateMutability": "nonpayable",
      "type": "function"
    },
    {
      "inputs": [
        {
          "internalType": "bytes4",
          "name": "interfaceId",
          "type": "bytes4"
        }
      ],
      "name": "supportsInterface",
      "outputs": [
        {
          "internalType": "bool",
          "name": "",
          "type": "bool"
        }
      ],
      "stateMutability": "view",
      "type": "function"
    },
    {
      "inputs": [],
      "name": "symbol",
      "outputs": [
        {
          "internalType": "string",
          "name": "",
          "type": "string"
        }
      ],
      "stateMutability": "view",
      "type": "function"
    },
    {
      "inputs": [
        {
          "internalType": "uint256",
          "name": "tokenId",
          "type": "uint256"
        }
      ],
      "name": "tokenURI",
      "outputs": [
        {
          "internalType": "string",
          "name": "",
          "type": "string"
        }
      ],
      "stateMutability": "view",
      "type": "function"
    },
    {
      "inputs": [
        {
          "internalType": "address",
          "name": "from",
          "type": "address"
        },
        {
          "internalType": "address",
          "name": "to",
          "type": "address"
        },
        {
          "internalType": "uint256",
          "name": "tokenId",
          "type": "uint256"
        }
      ],
      "name": "transferFrom",
      "outputs": [],
      "stateMutability": "nonpayable",
      "type": "function"
    },
    {
      "inputs": [
        {
          "internalType": "address",
          "name": "newOwner",
          "type": "address"
        }
      ],
      "name": "transferOwnership",
      "outputs": [],
      "stateMutability": "nonpayable",
      "type": "function"
    },
    {
      "inputs": [],
      "name": "withdraw",
      "outputs": [],
      "stateMutability": "nonpayable",
      "type": "function"
    }
  ],
  "bytecode": "0x60806040523480156200001157600080fd5b5060405162003e2338038062003e23833981810160405281019062000037919062000348565b33828281600090816200004b919062000618565b5080600190816200005d919062000618565b505050600073ffffffffffffffffffffffffffffffffffffffff168173ffffffffffffffffffffffffffffffffffffffff1603620000d55760006040517f1e4fbdf7000000000000000000000000000000000000000000000000000000008152600401620000cc919062000744565b60405180910390fd5b620000e681620000ef60201b60201c565b50505062000761565b6000600660009054906101000a900473ffffffffffffffffffffffffffffffffffffffff16905081600660006101000a81548173ffffffffffffffffffffffffffffffffffffffff021916908373ffffffffffffffffffffffffffffffffffffffff1602179055508173ffffffffffffffffffffffffffffffffffffffff168173ffffffffffffffffffffffffffffffffffffffff167f8be0079c531659141344cd1fd0a4f28419497f9722a3daafe3b4186f6b6457e060405160405180910390a35050565b6000604051905090565b600080fd5b600080fd5b600080fd5b600080fd5b6000601f19601f8301169050919050565b7f4e487b7100000000000000000000000000000000000000000000000000000000600052604160045260246000fd5b6200021e82620001d3565b810181811067ffffffffffffffff8211171562000240576200023f620001e4565b5b80604052505050565b600062000255620001b5565b905062000263828262000213565b919050565b600067ffffffffffffffff821115620002865762000285620001e4565b5b6200029182620001d3565b9050602081019050919050565b60005b83811015620002be578082015181840152602081019050620002a1565b60008484015250505050565b6000620002e1620002db8462000268565b62000249565b9050828152602081018484840111156200030057620002ff620001ce565b5b6200030d8482856200029e565b509392505050565b600082601f8301126200032d576200032c620001c9565b5b81516200033f848260208601620002ca565b91505092915050565b60008060408385031215620003625762000361620001bf565b5b600083015167ffffffffffffffff811115620003835762000382620001c4565b5b620003918582860162000315565b925050602083015167ffffffffffffffff811115620003b557620003b4620001c4565b5b620003c38582860162000315565b9150509250929050565b600081519050919050565b7f4e487b7100000000000000000000000000000000000000000000000000000000600052602260045260246000fd5b600060028204905060018216806200042057607f821691505b602082108103620004365762000435620003d8565b5b50919050565b60008190508160005260206000209050919050565b60006020601f8301049050919050565b600082821b905092915050565b600060088302620004a07fffffffffffffffffffffffffffffffffffffffffffffffffffffffffffffffff8262000461565b620004ac868362000461565b95508019841693508086168417925050509392505050565b6000819050919050565b6000819050919050565b6000620004f9620004f3620004ed84620004c4565b620004ce565b620004c4565b9050919050565b6000819050919050565b6200051583620004d8565b6200052d620005248262000500565b8484546200046e565b825550505050565b600090565b6200054462000535565b620005518184846200050a565b505050565b5b8181101562000579576200056d6000826200053a565b60018101905062000557565b5050565b601f821115620005c85762000592816200043c565b6200059d8462000451565b81016020851015620005ad578190505b620005c5620005bc8562000451565b83018262000556565b50505b505050565b600082821c905092915050565b6000620005ed60001984600802620005cd565b1980831691505092915050565b6000620006088383620005da565b9150826002028217905092915050565b6200062382620003cd565b67ffffffffffffffff8111156200063f576200063e620001e4565b5b6200064b825462000407565b620006588282856200057d565b600060209050601f8311600181146200069057600084156200067b578287015190505b620006878582620005fa565b865550620006f7565b601f198416620006a0866200043c565b60005b82811015620006ca57848901518255600182019150602085019450602081019050620006a3565b86831015620006ea5784890151620006e6601f891682620005da565b8355505b6001600288020188555050505b505050505050565b600073ffffffffffffffffffffffffffffffffffffffff82169050919050565b60006200072c82620006ff565b9050919050565b6200073e816200071f565b82525050565b60006020820190506200075b600083018462000733565b92915050565b6136b280620007716000396000f3fe60806040526004361061019c5760003560e01c80636a74a0fc116100ec578063adb1f3051161008a578063c87b56dd11610064578063c87b56dd146105f8578063db826a8a14610635578063e985e9c51461065e578063f2fde38b1461069b5761019c565b8063adb1f30514610567578063b88d4fde14610592578063ba9bdd6c146105bb5761019c565b80637fed6e65116100c65780637fed6e65146104ab5780638da5cb5b146104e857806395d89b4114610513578063a22cb4651461053e5761019c565b80636a74a0fc1461042c57806370a0823114610457578063715018a6146104945761019c565b80633040283f1161015957806343b614661161013357806343b6146614610331578063504cc6781461036e57806357dbeff2146103ab5780636352211e146103ef5761019c565b80633040283f146102b45780633ccfd60b146102f157806342842e0e146103085761019c565b806301ffc9a7146101a157806306fdde03146101de578063081812fc14610209578063095ea7b3146102465780631b2ef1ca1461026f57806323b872dd1461028b575b600080fd5b3480156101ad57600080fd5b506101c860048036038101906101c391906126c4565b6106c4565b6040516101d5919061270c565b60405180910390f35b3480156101ea57600080fd5b506101f36107a6565b60405161020091906127b7565b60405180910390f35b34801561021557600080fd5b50610230600480360381019061022b919061280f565b610838565b60405161023d919061287d565b60405180910390f35b34801561025257600080fd5b5061026d600480360381019061026891906128c4565b610854565b005b61028960048036038101906102849190612904565b61086a565b005b34801561029757600080fd5b506102b260048036038101906102ad9190612944565b610b07565b005b3480156102c057600080fd5b506102db60048036038101906102d6919061280f565b610c09565b6040516102e89190612a55565b60405180910390f35b3480156102fd57600080fd5b50610306610c74565b005b34801561031457600080fd5b5061032f600480360381019061032a9190612944565b610d29565b005b34801561033d57600080fd5b5061035860048036038101906103539190612904565b610d49565b604051610365919061287d565b60405180910390f35b34801561037a57600080fd5b5061039560048036038101906103909190612a77565b610d8b565b6040516103a2919061270c565b60405180910390f35b3480156103b757600080fd5b506103d260048036038101906103cd919061280f565b610dba565b6040516103e6989796959493929190612ac6565b60405180910390f35b3480156103fb57600080fd5b506104166004803603810190610411919061280f565b611022565b604051610423919061287d565b60405180910390f35b34801561043857600080fd5b50610441611034565b60405161044e9190612b60565b60405180910390f35b34801561046357600080fd5b5061047e60048036038101906104799190612b7b565b61103a565b60405161048b9190612b60565b60405180910390f35b3480156104a057600080fd5b506104a96110f4565b005b3480156104b757600080fd5b506104d260048036038101906104cd919061280f565b611108565b6040516104df9190612cb7565b60405180910390f35b3480156104f457600080fd5b506104fd6113a6565b60405161050a919061287d565b60405180910390f35b34801561051f57600080fd5b506105286113d0565b60405161053591906127b7565b60405180910390f35b34801561054a57600080fd5b5061056560048036038101906105609190612d05565b611462565b005b34801561057357600080fd5b5061057c611478565b6040516105899190612b60565b60405180910390f35b34801561059e57600080fd5b506105b960048036038101906105b49190612e7a565b61147e565b005b3480156105c757600080fd5b506105e260048036038101906105dd9190612904565b61149b565b6040516105ef9190612b60565b60405180910390f35b34801561060457600080fd5b5061061f600480360381019061061a919061280f565b6114cc565b60405161062c91906127b7565b60405180910390f35b34801561064157600080fd5b5061065c60048036038101906106579190612f9e565b611535565b005b34801561066a57600080fd5b506106856004803603810190610680919061309b565b611631565b604051610692919061270c565b60405180910390f35b3480156106a757600080fd5b506106c260048036038101906106bd9190612b7b565b6116c5565b005b60007f80ac58cd000000000000000000000000000000000000000000000000000000007bffffffffffffffffffffffffffffffffffffffffffffffffffffffff1916827bffffffffffffffffffffffffffffffffffffffffffffffffffffffff1916148061078f57507f5b5e139f000000000000000000000000000000000000000000000000000000007bffffffffffffffffffffffffffffffffffffffffffffffffffffffff1916827bffffffffffffffffffffffffffffffffffffffffffffffffffffffff1916145b8061079f575061079e8261174b565b5b9050919050565b6060600080546107b59061310a565b80601f01602080910402602001604051908101604052809291908181526020018280546107e19061310a565b801561082e5780601f106108035761010080835404028352916020019161082e565b820191906000526020600020905b81548152906001019060200180831161081157829003601f168201915b5050505050905090565b6000610843826117b5565b5061084d8261183d565b9050919050565b610866828261086161187a565b611882565b5050565b6007548211156108a6576040517f90675ce600000000000000000000000000000000000000000000000000000000815260040160405180910390fd5b60008114806108ca5750600960008381526020019081526020016000206003015481115b15610901576040517feea8c9f400000000000000000000000000000000000000000000000000000000815260040160405180910390fd5b600073ffffffffffffffffffffffffffffffffffffffff16600a6000848152602001908152602001600020600083815260200190815260200160002060009054906101000a900473ffffffffffffffffffffffffffffffffffffffff1673ffffffffffffffffffffffffffffffffffffffff16146109ab576040517f673fe3e700000000000000000000000000000000000000000000000000000000815260040160405180910390fd5b60016009600084815260200190815260200160002060040160008282546109d2919061316a565b925050819055506001600c600084815260200190815260200160002060003373ffffffffffffffffffffffffffffffffffffffff1673ffffffffffffffffffffffffffffffffffffffff16815260200190815260200160002060006101000a81548160ff02191690831515021790555033600a6000848152602001908152602001600020600083815260200190815260200160002060006101000a81548173ffffffffffffffffffffffffffffffffffffffff021916908373ffffffffffffffffffffffffffffffffffffffff160217905550600b600083815260200190815260200160002081908060018154018082558091505060019003906000526020600020016000909190919091505560086000815480929190610af29061319e565b9190505550610b0333600854611894565b5050565b600073ffffffffffffffffffffffffffffffffffffffff168273ffffffffffffffffffffffffffffffffffffffff1603610b795760006040517f64a0ae92000000000000000000000000000000000000000000000000000000008152600401610b70919061287d565b60405180910390fd5b6000610b8d8383610b8861187a565b6118b2565b90508373ffffffffffffffffffffffffffffffffffffffff168173ffffffffffffffffffffffffffffffffffffffff1614610c03578382826040517f64283d7b000000000000000000000000000000000000000000000000000000008152600401610bfa939291906131e6565b60405180910390fd5b50505050565b6060600b6000838152602001908152602001600020805480602002602001604051908101604052809291908181526020018280548015610c6857602002820191906000526020600020905b815481526020019060010190808311610c54575b50505050509050919050565b610c7c611acc565b6000610c866113a6565b73ffffffffffffffffffffffffffffffffffffffff1647604051610ca99061324e565b60006040518083038185875af1925050503d8060008114610ce6576040519150601f19603f3d011682016040523d82523d6000602084013e610ceb565b606091505b5050905080610d26576040517f9e30d92c00000000000000000000000000000000000000000000000000000000815260040160405180910390fd5b50565b610d448383836040518060200160405280600081525061147e565b505050565b600a6020528160005260406000206020528060005260406000206000915091509054906101000a900473ffffffffffffffffffffffffffffffffffffffff1681565b600c6020528160005260406000206020528060005260406000206000915091509054906101000a900460ff1681565b6009602052806000526040600020600091509050806000015490806001018054610de39061310a565b80601f0160208091040260200160405190810160405280929190818152602001828054610e0f9061310a565b8015610e5c5780601f10610e3157610100808354040283529160200191610e5c565b820191906000526020600020905b815481529060010190602001808311610e3f57829003601f168201915b505050505090806002015490806003015490806004015490806005018054610e839061310a565b80601f0160208091040260200160405190810160405280929190818152602001828054610eaf9061310a565b8015610efc5780601f10610ed157610100808354040283529160200191610efc565b820191906000526020600020905b815481529060010190602001808311610edf57829003601f168201915b505050505090806006018054610f119061310a565b80601f0160208091040260200160405190810160405280929190818152602001828054610f3d9061310a565b8015610f8a5780601f10610f5f57610100808354040283529160200191610f8a565b820191906000526020600020905b815481529060010190602001808311610f6d57829003601f168201915b505050505090806007018054610f9f9061310a565b80601f0160208091040260200160405190810160405280929190818152602001828054610fcb9061310a565b80156110185780601f10610fed57610100808354040283529160200191611018565b820191906000526020600020905b815481529060010190602001808311610ffb57829003601f168201915b5050505050905088565b600061102d826117b5565b9050919050565b60085481565b60008073ffffffffffffffffffffffffffffffffffffffff168273ffffffffffffffffffffffffffffffffffffffff16036110ad5760006040517f89c62b640000000000000000000000000000000000000000000000000000000081526004016110a4919061287d565b60405180910390fd5b600360008373ffffffffffffffffffffffffffffffffffffffff1673ffffffffffffffffffffffffffffffffffffffff168152602001908152602001600020549050919050565b6110fc611acc565b6111066000611b53565b565b611110612613565b6009600083815260200190815260200160002060405180610100016040529081600082015481526020016001820180546111499061310a565b80601f01602080910402602001604051908101604052809291908181526020018280546111759061310a565b80156111c25780601f10611197576101008083540402835291602001916111c2565b820191906000526020600020905b8154815290600101906020018083116111a557829003601f168201915b505050505081526020016002820154815260200160038201548152602001600482015481526020016005820180546111f99061310a565b80601f01602080910402602001604051908101604052809291908181526020018280546112259061310a565b80156112725780601f1061124757610100808354040283529160200191611272565b820191906000526020600020905b81548152906001019060200180831161125557829003601f168201915b5050505050815260200160068201805461128b9061310a565b80601f01602080910402602001604051908101604052809291908181526020018280546112b79061310a565b80156113045780601f106112d957610100808354040283529160200191611304565b820191906000526020600020905b8154815290600101906020018083116112e757829003601f168201915b5050505050815260200160078201805461131d9061310a565b80601f01602080910402602001604051908101604052809291908181526020018280546113499061310a565b80156113965780601f1061136b57610100808354040283529160200191611396565b820191906000526020600020905b81548152906001019060200180831161137957829003601f168201915b5050505050815250509050919050565b6000600660009054906101000a900473ffffffffffffffffffffffffffffffffffffffff16905090565b6060600180546113df9061310a565b80601f016020809104026020016040519081016040528092919081815260200182805461140b9061310a565b80156114585780601f1061142d57610100808354040283529160200191611458565b820191906000526020600020905b81548152906001019060200180831161143b57829003601f168201915b5050505050905090565b61147461146d61187a565b8383611c19565b5050565b60075481565b611489848484610b07565b61149584848484611d88565b50505050565b600b60205281600052604060002081815481106114b757600080fd5b90600052602060002001600091509150505481565b60606114d7826117b5565b5060006114e2611f3f565b90506000815111611502576040518060200160405280600081525061152d565b8061150c84611f56565b60405160200161151d92919061329f565b6040516020818303038152906040525b915050919050565b61153d611acc565b600760008154809291906115509061319e565b91905055506040518061010001604052806007548152602001878152602001868152602001858152602001858152602001848152602001838152602001828152506009600060075481526020019081526020016000206000820151816000015560208201518160010190816115c5919061346f565b5060408201518160020155606082015181600301556080820151816004015560a08201518160050190816115f9919061346f565b5060c082015181600601908161160f919061346f565b5060e0820151816007019081611625919061346f565b50905050505050505050565b6000600560008473ffffffffffffffffffffffffffffffffffffffff1673ffffffffffffffffffffffffffffffffffffffff16815260200190815260200160002060008373ffffffffffffffffffffffffffffffffffffffff1673ffffffffffffffffffffffffffffffffffffffff16815260200190815260200160002060009054906101000a900460ff16905092915050565b6116cd611acc565b600073ffffffffffffffffffffffffffffffffffffffff168173ffffffffffffffffffffffffffffffffffffffff160361173f5760006040517f1e4fbdf7000000000000000000000000000000000000000000000000000000008152600401611736919061287d565b60405180910390fd5b61174881611b53565b50565b60007f01ffc9a7000000000000000000000000000000000000000000000000000000007bffffffffffffffffffffffffffffffffffffffffffffffffffffffff1916827bffffffffffffffffffffffffffffffffffffffffffffffffffffffff1916149050919050565b6000806117c183612024565b9050600073ffffffffffffffffffffffffffffffffffffffff168173ffffffffffffffffffffffffffffffffffffffff160361183457826040517f7e27328900000000000000000000000000000000000000000000000000000000815260040161182b9190612b60565b60405180910390fd5b80915050919050565b60006004600083815260200190815260200160002060009054906101000a900473ffffffffffffffffffffffffffffffffffffffff169050919050565b600033905090565b61188f8383836001612061565b505050565b6118ae828260405180602001604052806000815250612226565b5050565b6000806118be84612024565b9050600073ffffffffffffffffffffffffffffffffffffffff168373ffffffffffffffffffffffffffffffffffffffff1614611900576118ff818486612242565b5b600073ffffffffffffffffffffffffffffffffffffffff168173ffffffffffffffffffffffffffffffffffffffff161461199157611942600085600080612061565b6001600360008373ffffffffffffffffffffffffffffffffffffffff1673ffffffffffffffffffffffffffffffffffffffff168152602001908152602001600020600082825403925050819055505b600073ffffffffffffffffffffffffffffffffffffffff168573ffffffffffffffffffffffffffffffffffffffff1614611a14576001600360008773ffffffffffffffffffffffffffffffffffffffff1673ffffffffffffffffffffffffffffffffffffffff168152602001908152602001600020600082825401925050819055505b846002600086815260200190815260200160002060006101000a81548173ffffffffffffffffffffffffffffffffffffffff021916908373ffffffffffffffffffffffffffffffffffffffff160217905550838573ffffffffffffffffffffffffffffffffffffffff168273ffffffffffffffffffffffffffffffffffffffff167fddf252ad1be2c89b69c2b068fc378daa952ba7f163c4a11628f55a4df523b3ef60405160405180910390a4809150509392505050565b611ad461187a565b73ffffffffffffffffffffffffffffffffffffffff16611af26113a6565b73ffffffffffffffffffffffffffffffffffffffff1614611b5157611b1561187a565b6040517f118cdaa7000000000000000000000000000000000000000000000000000000008152600401611b48919061287d565b60405180910390fd5b565b6000600660009054906101000a900473ffffffffffffffffffffffffffffffffffffffff16905081600660006101000a81548173ffffffffffffffffffffffffffffffffffffffff021916908373ffffffffffffffffffffffffffffffffffffffff1602179055508173ffffffffffffffffffffffffffffffffffffffff168173ffffffffffffffffffffffffffffffffffffffff167f8be0079c531659141344cd1fd0a4f28419497f9722a3daafe3b4186f6b6457e060405160405180910390a35050565b600073ffffffffffffffffffffffffffffffffffffffff168273ffffffffffffffffffffffffffffffffffffffff1603611c8a57816040517f5b08ba18000000000000000000000000000000000000000000000000000000008152600401611c81919061287d565b60405180910390fd5b80600560008573ffffffffffffffffffffffffffffffffffffffff1673ffffffffffffffffffffffffffffffffffffffff16815260200190815260200160002060008473ffffffffffffffffffffffffffffffffffffffff1673ffffffffffffffffffffffffffffffffffffffff16815260200190815260200160002060006101000a81548160ff0219169083151502179055508173ffffffffffffffffffffffffffffffffffffffff168373ffffffffffffffffffffffffffffffffffffffff167f17307eab39ab6107e8899845ad3d59bd9653f200f220920489ca2b5937696c3183604051611d7b919061270c565b60405180910390a3505050565b60008373ffffffffffffffffffffffffffffffffffffffff163b1115611f39578273ffffffffffffffffffffffffffffffffffffffff1663150b7a02611dcc61187a565b8685856040518563ffffffff1660e01b8152600401611dee9493929190613596565b6020604051808303816000875af1925050508015611e2a57506040513d601f19601f82011682018060405250810190611e2791906135f7565b60015b611eae573d8060008114611e5a576040519150601f19603f3d011682016040523d82523d6000602084013e611e5f565b606091505b506000815103611ea657836040517f64a0ae92000000000000000000000000000000000000000000000000000000008152600401611e9d919061287d565b60405180910390fd5b805181602001fd5b63150b7a0260e01b7bffffffffffffffffffffffffffffffffffffffffffffffffffffffff1916817bffffffffffffffffffffffffffffffffffffffffffffffffffffffff191614611f3757836040517f64a0ae92000000000000000000000000000000000000000000000000000000008152600401611f2e919061287d565b60405180910390fd5b505b50505050565b606060405180602001604052806000815250905090565b606060006001611f6584612306565b01905060008167ffffffffffffffff811115611f8457611f83612d4f565b5b6040519080825280601f01601f191660200182016040528015611fb65781602001600182028036833780820191505090505b509050600082602001820190505b600115612019578080600190039150507f3031323334353637383961626364656600000000000000000000000000000000600a86061a8153600a858161200d5761200c613624565b5b04945060008503611fc4575b819350505050919050565b60006002600083815260200190815260200160002060009054906101000a900473ffffffffffffffffffffffffffffffffffffffff169050919050565b808061209a5750600073ffffffffffffffffffffffffffffffffffffffff168273ffffffffffffffffffffffffffffffffffffffff1614155b156121ce5760006120aa846117b5565b9050600073ffffffffffffffffffffffffffffffffffffffff168373ffffffffffffffffffffffffffffffffffffffff161415801561211557508273ffffffffffffffffffffffffffffffffffffffff168173ffffffffffffffffffffffffffffffffffffffff1614155b801561212857506121268184611631565b155b1561216a57826040517fa9fbf51f000000000000000000000000000000000000000000000000000000008152600401612161919061287d565b60405180910390fd5b81156121cc57838573ffffffffffffffffffffffffffffffffffffffff168273ffffffffffffffffffffffffffffffffffffffff167f8c5be1e5ebec7d5bd14f71427d1e84f3dd0314c0f7b2291e5b200ac8c7c3b92560405160405180910390a45b505b836004600085815260200190815260200160002060006101000a81548173ffffffffffffffffffffffffffffffffffffffff021916908373ffffffffffffffffffffffffffffffffffffffff16021790555050505050565b6122308383612459565b61223d6000848484611d88565b505050565b61224d838383612552565b61230157600073ffffffffffffffffffffffffffffffffffffffff168373ffffffffffffffffffffffffffffffffffffffff16036122c257806040517f7e2732890000000000000000000000000000000000000000000000000000000081526004016122b99190612b60565b60405180910390fd5b81816040517f177e802f0000000000000000000000000000000000000000000000000000000081526004016122f8929190613653565b60405180910390fd5b505050565b600080600090507a184f03e93ff9f4daa797ed6e38ed64bf6a1f0100000000000000008310612364577a184f03e93ff9f4daa797ed6e38ed64bf6a1f010000000000000000838161235a57612359613624565b5b0492506040810190505b6d04ee2d6d415b85acef810000000083106123a1576d04ee2d6d415b85acef8100000000838161239757612396613624565b5b0492506020810190505b662386f26fc1000083106123d057662386f26fc1000083816123c6576123c5613624565b5b0492506010810190505b6305f5e10083106123f9576305f5e10083816123ef576123ee613624565b5b0492506008810190505b612710831061241e57612710838161241457612413613624565b5b0492506004810190505b60648310612441576064838161243757612436613624565b5b0492506002810190505b600a8310612450576001810190505b80915050919050565b600073ffffffffffffffffffffffffffffffffffffffff168273ffffffffffffffffffffffffffffffffffffffff16036124cb5760006040517f64a0ae920000000000000000000000000000000000000000000000000000000081526004016124c2919061287d565b60405180910390fd5b60006124d9838360006118b2565b9050600073ffffffffffffffffffffffffffffffffffffffff168173ffffffffffffffffffffffffffffffffffffffff161461254d5760006040517f73c6ac6e000000000000000000000000000000000000000000000000000000008152600401612544919061287d565b60405180910390fd5b505050565b60008073ffffffffffffffffffffffffffffffffffffffff168373ffffffffffffffffffffffffffffffffffffffff161415801561260a57508273ffffffffffffffffffffffffffffffffffffffff168473ffffffffffffffffffffffffffffffffffffffff1614806125cb57506125ca8484611631565b5b8061260957508273ffffffffffffffffffffffffffffffffffffffff166125f18361183d565b73ffffffffffffffffffffffffffffffffffffffff16145b5b90509392505050565b60405180610100016040528060008152602001606081526020016000815260200160008152602001600081526020016060815260200160608152602001606081525090565b6000604051905090565b600080fd5b600080fd5b60007fffffffff0000000000000000000000000000000000000000000000000000000082169050919050565b6126a18161266c565b81146126ac57600080fd5b50565b6000813590506126be81612698565b92915050565b6000602082840312156126da576126d9612662565b5b60006126e8848285016126af565b91505092915050565b60008115159050919050565b612706816126f1565b82525050565b600060208201905061272160008301846126fd565b92915050565b600081519050919050565b600082825260208201905092915050565b60005b83811015612761578082015181840152602081019050612746565b60008484015250505050565b6000601f19601f8301169050919050565b600061278982612727565b6127938185612732565b93506127a3818560208601612743565b6127ac8161276d565b840191505092915050565b600060208201905081810360008301526127d1818461277e565b905092915050565b6000819050919050565b6127ec816127d9565b81146127f757600080fd5b50565b600081359050612809816127e3565b92915050565b60006020828403121561282557612824612662565b5b6000612833848285016127fa565b91505092915050565b600073ffffffffffffffffffffffffffffffffffffffff82169050919050565b60006128678261283c565b9050919050565b6128778161285c565b82525050565b6000602082019050612892600083018461286e565b92915050565b6128a18161285c565b81146128ac57600080fd5b50565b6000813590506128be81612898565b92915050565b600080604083850312156128db576128da612662565b5b60006128e9858286016128af565b92505060206128fa858286016127fa565b9150509250929050565b6000806040838503121561291b5761291a612662565b5b6000612929858286016127fa565b925050602061293a858286016127fa565b9150509250929050565b60008060006060848603121561295d5761295c612662565b5b600061296b868287016128af565b935050602061297c868287016128af565b925050604061298d868287016127fa565b9150509250925092565b600081519050919050565b600082825260208201905092915050565b6000819050602082019050919050565b6129cc816127d9565b82525050565b60006129de83836129c3565b60208301905092915050565b6000602082019050919050565b6000612a0282612997565b612a0c81856129a2565b9350612a17836129b3565b8060005b83811015612a48578151612a2f88826129d2565b9750612a3a836129ea565b925050600181019050612a1b565b5085935050505092915050565b60006020820190508181036000830152612a6f81846129f7565b905092915050565b60008060408385031215612a8e57612a8d612662565b5b6000612a9c858286016127fa565b9250506020612aad858286016128af565b9150509250929050565b612ac0816127d9565b82525050565b600061010082019050612adc600083018b612ab7565b8181036020830152612aee818a61277e565b9050612afd6040830189612ab7565b612b0a6060830188612ab7565b612b176080830187612ab7565b81810360a0830152612b29818661277e565b905081810360c0830152612b3d818561277e565b905081810360e0830152612b51818461277e565b90509998505050505050505050565b6000602082019050612b756000830184612ab7565b92915050565b600060208284031215612b9157612b90612662565b5b6000612b9f848285016128af565b91505092915050565b600082825260208201905092915050565b6000612bc482612727565b612bce8185612ba8565b9350612bde818560208601612743565b612be78161276d565b840191505092915050565b600061010083016000830151612c0b60008601826129c3565b5060208301518482036020860152612c238282612bb9565b9150506040830151612c3860408601826129c3565b506060830151612c4b60608601826129c3565b506080830151612c5e60808601826129c3565b5060a083015184820360a0860152612c768282612bb9565b91505060c083015184820360c0860152612c908282612bb9565b91505060e083015184820360e0860152612caa8282612bb9565b9150508091505092915050565b60006020820190508181036000830152612cd18184612bf2565b905092915050565b612ce2816126f1565b8114612ced57600080fd5b50565b600081359050612cff81612cd9565b92915050565b60008060408385031215612d1c57612d1b612662565b5b6000612d2a858286016128af565b9250506020612d3b85828601612cf0565b9150509250929050565b600080fd5b600080fd5b7f4e487b7100000000000000000000000000000000000000000000000000000000600052604160045260246000fd5b612d878261276d565b810181811067ffffffffffffffff82111715612da657612da5612d4f565b5b80604052505050565b6000612db9612658565b9050612dc58282612d7e565b919050565b600067ffffffffffffffff821115612de557612de4612d4f565b5b612dee8261276d565b9050602081019050919050565b82818337600083830152505050565b6000612e1d612e1884612dca565b612daf565b905082815260208101848484011115612e3957612e38612d4a565b5b612e44848285612dfb565b509392505050565b600082601f830112612e6157612e60612d45565b5b8135612e71848260208601612e0a565b91505092915050565b60008060008060808587031215612e9457612e93612662565b5b6000612ea2878288016128af565b9450506020612eb3878288016128af565b9350506040612ec4878288016127fa565b925050606085013567ffffffffffffffff811115612ee557612ee4612667565b5b612ef187828801612e4c565b91505092959194509250565b600067ffffffffffffffff821115612f1857612f17612d4f565b5b612f218261276d565b9050602081019050919050565b6000612f41612f3c84612efd565b612daf565b905082815260208101848484011115612f5d57612f5c612d4a565b5b612f68848285612dfb565b509392505050565b600082601f830112612f8557612f84612d45565b5b8135612f95848260208601612f2e565b91505092915050565b60008060008060008060c08789031215612fbb57612fba612662565b5b600087013567ffffffffffffffff811115612fd957612fd8612667565b5b612fe589828a01612f70565b9650506020612ff689828a016127fa565b955050604061300789828a016127fa565b945050606087013567ffffffffffffffff81111561302857613027612667565b5b61303489828a01612f70565b935050608087013567ffffffffffffffff81111561305557613054612667565b5b61306189828a01612f70565b92505060a087013567ffffffffffffffff81111561308257613081612667565b5b61308e89828a01612f70565b9150509295509295509295565b600080604083850312156130b2576130b1612662565b5b60006130c0858286016128af565b92505060206130d1858286016128af565b9150509250929050565b7f4e487b7100000000000000000000000000000000000000000000000000000000600052602260045260246000fd5b6000600282049050600182168061312257607f821691505b602082108103613135576131346130db565b5b50919050565b7f4e487b7100000000000000000000000000000000000000000000000000000000600052601160045260246000fd5b6000613175826127d9565b9150613180836127d9565b92508282039050818111156131985761319761313b565b5b92915050565b60006131a9826127d9565b91507fffffffffffffffffffffffffffffffffffffffffffffffffffffffffffffffff82036131db576131da61313b565b5b600182019050919050565b60006060820190506131fb600083018661286e565b6132086020830185612ab7565b613215604083018461286e565b949350505050565b600081905092915050565b50565b600061323860008361321d565b915061324382613228565b600082019050919050565b60006132598261322b565b9150819050919050565b600081905092915050565b600061327982612727565b6132838185613263565b9350613293818560208601612743565b80840191505092915050565b60006132ab828561326e565b91506132b7828461326e565b91508190509392505050565b60008190508160005260206000209050919050565b60006020601f8301049050919050565b600082821b905092915050565b6000600883026133257fffffffffffffffffffffffffffffffffffffffffffffffffffffffffffffffff826132e8565b61332f86836132e8565b95508019841693508086168417925050509392505050565b6000819050919050565b600061336c613367613362846127d9565b613347565b6127d9565b9050919050565b6000819050919050565b61338683613351565b61339a61339282613373565b8484546132f5565b825550505050565b600090565b6133af6133a2565b6133ba81848461337d565b505050565b5b818110156133de576133d36000826133a7565b6001810190506133c0565b5050565b601f821115613423576133f4816132c3565b6133fd846132d8565b8101602085101561340c578190505b613420613418856132d8565b8301826133bf565b50505b505050565b600082821c905092915050565b600061344660001984600802613428565b1980831691505092915050565b600061345f8383613435565b9150826002028217905092915050565b61347882612727565b67ffffffffffffffff81111561349157613490612d4f565b5b61349b825461310a565b6134a68282856133e2565b600060209050601f8311600181146134d957600084156134c7578287015190505b6134d18582613453565b865550613539565b601f1984166134e7866132c3565b60005b8281101561350f578489015182556001820191506020850194506020810190506134ea565b8683101561352c5784890151613528601f891682613435565b8355505b6001600288020188555050505b505050505050565b600081519050919050565b600082825260208201905092915050565b600061356882613541565b613572818561354c565b9350613582818560208601612743565b61358b8161276d565b840191505092915050565b60006080820190506135ab600083018761286e565b6135b8602083018661286e565b6135c56040830185612ab7565b81810360608301526135d7818461355d565b905095945050505050565b6000815190506135f181612698565b92915050565b60006020828403121561360d5761360c612662565b5b600061361b848285016135e2565b91505092915050565b7f4e487b7100000000000000000000000000000000000000000000000000000000600052601260045260246000fd5b6000604082019050613668600083018561286e565b6136756020830184612ab7565b939250505056fea26469706673582212204491110ee1e49704f849460cfe127febaad4d7b5633afdee0d463ce8caf74ae364736f6c63430008140033",
  "linkReferences": {},
  "deployedLinkReferences": {}
}